{
  "contractName": "DoxHash",
  "abi": [
    {
      "constant": true,
      "inputs": [
        {
          "name": "",
          "type": "uint256"
        }
      ],
      "name": "hashes",
      "outputs": [
        {
          "name": "sender",
          "type": "address"
        },
        {
          "name": "content",
          "type": "string"
        },
        {
          "name": "timestamp",
          "type": "uint256"
        }
      ],
      "payable": false,
      "stateMutability": "view",
      "type": "function"
    },
    {
      "constant": true,
      "inputs": [],
      "name": "lastHashId",
      "outputs": [
        {
          "name": "",
          "type": "uint256"
        }
      ],
      "payable": false,
      "stateMutability": "view",
      "type": "function"
    },
    {
      "constant": true,
      "inputs": [],
      "name": "price",
      "outputs": [
        {
          "name": "",
          "type": "uint256"
        }
      ],
      "payable": false,
      "stateMutability": "view",
      "type": "function"
    },
    {
      "inputs": [
        {
          "name": "_price",
          "type": "uint256"
        }
      ],
      "payable": false,
      "stateMutability": "nonpayable",
      "type": "constructor"
    },
    {
      "anonymous": false,
      "inputs": [
        {
          "indexed": true,
          "name": "_previousOwner",
          "type": "address"
        },
        {
          "indexed": true,
          "name": "_newOwner",
          "type": "address"
        }
      ],
      "name": "OwnershipTransferred",
      "type": "event"
    },
    {
      "anonymous": false,
      "inputs": [
        {
          "indexed": true,
          "name": "_hashSender",
          "type": "address"
        },
        {
          "indexed": false,
          "name": "_hashId",
          "type": "uint256"
        },
        {
          "indexed": false,
          "name": "_hashContent",
          "type": "string"
        },
        {
          "indexed": false,
          "name": "timestamp",
          "type": "uint256"
        }
      ],
      "name": "NewHashStored",
      "type": "event"
    },
    {
      "anonymous": false,
      "inputs": [
        {
          "indexed": true,
          "name": "_hashSender",
          "type": "address"
        },
        {
          "indexed": false,
          "name": "amount",
          "type": "uint256"
        }
      ],
      "name": "Withdrawn",
      "type": "event"
    },
    {
      "anonymous": false,
      "inputs": [
        {
          "indexed": false,
          "name": "newPrice",
          "type": "uint256"
        }
      ],
      "name": "PriceChanged",
      "type": "event"
    },
    {
      "constant": false,
      "inputs": [
        {
          "name": "_newOwner",
          "type": "address"
        }
      ],
      "name": "transferOwnership",
      "outputs": [],
      "payable": false,
      "stateMutability": "nonpayable",
      "type": "function"
    },
    {
      "constant": false,
      "inputs": [],
      "name": "withdrawBalance",
      "outputs": [],
      "payable": false,
      "stateMutability": "nonpayable",
      "type": "function"
    },
    {
      "constant": false,
      "inputs": [
        {
          "name": "newPrice",
          "type": "uint256"
        }
      ],
      "name": "changePrice",
      "outputs": [],
      "payable": false,
      "stateMutability": "nonpayable",
      "type": "function"
    },
    {
      "constant": false,
      "inputs": [],
      "name": "kill",
      "outputs": [],
      "payable": false,
      "stateMutability": "nonpayable",
      "type": "function"
    },
    {
      "constant": false,
      "inputs": [
        {
          "name": "_hashContent",
          "type": "string"
        }
      ],
      "name": "save",
      "outputs": [],
      "payable": true,
      "stateMutability": "payable",
      "type": "function"
    },
    {
      "constant": true,
      "inputs": [
        {
          "name": "_hashId",
          "type": "uint256"
        }
      ],
      "name": "find",
      "outputs": [
        {
          "name": "hashSender",
          "type": "address"
        },
        {
          "name": "hashContent",
          "type": "string"
        },
        {
          "name": "hashTimestamp",
          "type": "uint256"
        }
      ],
      "payable": false,
      "stateMutability": "view",
      "type": "function"
    }
  ],
  "bytecode": "0x6060604052341561000f57600080fd5b604051602080610c7e8339810160405280805190602001909190505060008111151561003a57600080fd5b33600160006101000a81548173ffffffffffffffffffffffffffffffffffffffff021916908373ffffffffffffffffffffffffffffffffffffffff16021790555080600381905550600060028190555050610be48061009a6000396000f300606060405260043610610099576000357c0100000000000000000000000000000000000000000000000000000000900463ffffffff16806338e48f061461009e5780633e530e5b146100f057806341c0e1b5146101c6578063501895ae146101db5780635fd8c710146102ce5780639f749827146102e3578063a035b1fe1461030c578063a2b40d1914610335578063f2fde38b14610358575b600080fd5b6100ee600480803590602001908201803590602001908080601f01602080910402602001604051908101604052809392919081815260200183838082843782019150505050505091905050610391565b005b34156100fb57600080fd5b6101116004808035906020019091905050610594565b604051808473ffffffffffffffffffffffffffffffffffffffff1673ffffffffffffffffffffffffffffffffffffffff16815260200180602001838152602001828103825284818151815260200191508051906020019080838360005b8381101561018957808201518184015260208101905061016e565b50505050905090810190601f1680156101b65780820380516001836020036101000a031916815260200191505b5094505050505060405180910390f35b34156101d157600080fd5b6101d96106aa565b005b34156101e657600080fd5b6101fc6004808035906020019091905050610741565b604051808473ffffffffffffffffffffffffffffffffffffffff1673ffffffffffffffffffffffffffffffffffffffff168152602001806020018381526020018281038252848181546001816001161561010002031660029004815260200191508054600181600116156101000203166002900480156102bd5780601f10610292576101008083540402835291602001916102bd565b820191906000526020600020905b8154815290600101906020018083116102a057829003601f168201915b505094505050505060405180910390f35b34156102d957600080fd5b6102e161078a565b005b34156102ee57600080fd5b6102f66108ee565b6040518082815260200191505060405180910390f35b341561031757600080fd5b61031f6108f4565b6040518082815260200191505060405180910390f35b341561034057600080fd5b61035660048080359060200190919050506108fa565b005b341561036357600080fd5b61038f600480803573ffffffffffffffffffffffffffffffffffffffff169060200190919050506109a7565b005b600060035434101515156103a457600080fd5b60025490503360008083815260200190815260200160002060000160006101000a81548173ffffffffffffffffffffffffffffffffffffffff021916908373ffffffffffffffffffffffffffffffffffffffff160217905550816000808381526020019081526020016000206001019080519060200190610426929190610aff565b50426000808381526020019081526020016000206002018190555060026000815480929190600101919050555060008082815260200190815260200160002060000160009054906101000a900473ffffffffffffffffffffffffffffffffffffffff1673ffffffffffffffffffffffffffffffffffffffff167e0e9060aadd104e99f6317d14c9cc79d566a8dee53787abb0882ff038841b6a826000808581526020019081526020016000206001016000808681526020019081526020016000206002015460405180848152602001806020018381526020018281038252848181546001816001161561010002031660029004815260200191508054600181600116156101000203166002900480156105805780601f1061055557610100808354040283529160200191610580565b820191906000526020600020905b81548152906001019060200180831161056357829003601f168201915b505094505050505060405180910390a25050565b600061059e610b7f565b600080600085815260200190815260200160002060000160009054906101000a900473ffffffffffffffffffffffffffffffffffffffff1660008086815260200190815260200160002060010160008087815260200190815260200160002060020154818054600181600116156101000203166002900480601f0160208091040260200160405190810160405280929190818152602001828054600181600116156101000203166002900480156106965780601f1061066b57610100808354040283529160200191610696565b820191906000526020600020905b81548152906001019060200180831161067957829003601f168201915b505050505091509250925092509193909250565b600160009054906101000a900473ffffffffffffffffffffffffffffffffffffffff1673ffffffffffffffffffffffffffffffffffffffff163373ffffffffffffffffffffffffffffffffffffffff1614151561070657600080fd5b600160009054906101000a900473ffffffffffffffffffffffffffffffffffffffff1673ffffffffffffffffffffffffffffffffffffffff16ff5b60006020528060005260406000206000915090508060000160009054906101000a900473ffffffffffffffffffffffffffffffffffffffff169080600101908060020154905083565b6000600160009054906101000a900473ffffffffffffffffffffffffffffffffffffffff1673ffffffffffffffffffffffffffffffffffffffff163373ffffffffffffffffffffffffffffffffffffffff161415156107e857600080fd5b3073ffffffffffffffffffffffffffffffffffffffff16319050600160009054906101000a900473ffffffffffffffffffffffffffffffffffffffff1673ffffffffffffffffffffffffffffffffffffffff166108fc3073ffffffffffffffffffffffffffffffffffffffff16319081150290604051600060405180830381858888f19350505050151561087b57600080fd5b600160009054906101000a900473ffffffffffffffffffffffffffffffffffffffff1673ffffffffffffffffffffffffffffffffffffffff167f7084f5476618d8e60b11ef0d7d3f06914655adb8793e28ff7f018d4c76d505d5826040518082815260200191505060405180910390a250565b60025481565b60035481565b600160009054906101000a900473ffffffffffffffffffffffffffffffffffffffff1673ffffffffffffffffffffffffffffffffffffffff163373ffffffffffffffffffffffffffffffffffffffff1614151561095657600080fd5b6000811015151561096657600080fd5b806003819055507fa6dc15bdb68da224c66db4b3838d9a2b205138e8cff6774e57d0af91e196d622816040518082815260200191505060405180910390a150565b600160009054906101000a900473ffffffffffffffffffffffffffffffffffffffff1673ffffffffffffffffffffffffffffffffffffffff163373ffffffffffffffffffffffffffffffffffffffff16141515610a0357600080fd5b600073ffffffffffffffffffffffffffffffffffffffff168173ffffffffffffffffffffffffffffffffffffffff1614151515610a3f57600080fd5b80600160006101000a81548173ffffffffffffffffffffffffffffffffffffffff021916908373ffffffffffffffffffffffffffffffffffffffff1602179055508073ffffffffffffffffffffffffffffffffffffffff16600160009054906101000a900473ffffffffffffffffffffffffffffffffffffffff1673ffffffffffffffffffffffffffffffffffffffff167f8be0079c531659141344cd1fd0a4f28419497f9722a3daafe3b4186f6b6457e060405160405180910390a350565b828054600181600116156101000203166002900490600052602060002090601f016020900481019282601f10610b4057805160ff1916838001178555610b6e565b82800160010185558215610b6e579182015b82811115610b6d578251825591602001919060010190610b52565b5b509050610b7b9190610b93565b5090565b602060405190810160405280600081525090565b610bb591905b80821115610bb1576000816000905550600101610b99565b5090565b905600a165627a7a723058205c841e3304986461491d192839d69ca2f7dbfad577ce2d57a3dca0c82c7245160029",
  "source": "pragma solidity ^0.4.17;\n\ncontract DoxHash {\n    \n\n    //events\n    event OwnershipTransferred(address indexed _previousOwner, address indexed _newOwner);\n    event NewHashStored(address indexed _hashSender, uint _hashId, string _hashContent, uint timestamp);\n    event Withdrawn(address indexed _hashSender, uint amount);\n    event PriceChanged(uint newPrice);\n\n    //structs\n\n    struct Hash {\n        address sender;\n        string content;\n        uint timestamp;\n    }\n\n    //variables\n\n    mapping(uint => Hash) public hashes;\n    address owner;\n    uint public lastHashId;\n    uint public price;\n\n    //modifiers\n\n    modifier ownerOnly(){\n        require(msg.sender == owner);\n        _;\n    }\n\n    //constructor\n\n    function DoxHash(uint _price) public{\n        require(_price > 0);\n\n        owner = msg.sender;\n        price = _price;\n        lastHashId = 0;\n    }\n\n    //functions\n\n    function transferOwnership(address _newOwner) ownerOnly public {\n        require(_newOwner != address(0));\n\n        owner = _newOwner;\n\n        //invoke event\n        OwnershipTransferred(owner, _newOwner);\n    }\n\n\n    function withdrawBalance() ownerOnly public {\n\n        var amount = this.balance;\n\n        //transfer balance\n        owner.transfer(this.balance);\n\n        //Log event\n        Withdrawn(owner, amount);\n    }\n\n\n    function changePrice(uint newPrice) ownerOnly public {\n        require(newPrice >= 0);\n\n        price = newPrice;\n\n        PriceChanged(newPrice);\n    }\n\n    function kill() ownerOnly public {\n        selfdestruct(owner);\n    }\n\n\n    function save(string _hashContent) payable public {\n        require(msg.value >= price);\n\n        //save/map the hash\n        uint hashId = lastHashId;\n\n        hashes[hashId].sender = msg.sender;\n        hashes[hashId].content = _hashContent;\n        hashes[hashId].timestamp = block.timestamp;\n\n        lastHashId++;\n\n        //Log event\n        NewHashStored(hashes[hashId].sender, hashId, hashes[hashId].content, hashes[hashId].timestamp);\n    }\n\n    function find(uint _hashId) view public returns (address hashSender, string hashContent, uint hashTimestamp) {\n        return (hashes[_hashId].sender, hashes[_hashId].content, hashes[_hashId].timestamp);\n    }\n}",
  "sourcePath": "/home/daniel/Desktop/Dox/contracts/DoxHash.sol",
  "compiler": {
    "name": "solc",
    "version": "0.4.19+commit.c4cbbb05.Emscripten.clang"
  },
  "schemaVersion": "2.0.0",
  "updatedAt": "2018-04-21T15:39:30.238Z"
}