{
  "contractName": "DoxHash",
  "abi": [
    {
      "constant": true,
      "inputs": [
        {
          "name": "",
          "type": "uint256"
        }
      ],
      "name": "hashes",
      "outputs": [
        {
          "name": "sender",
          "type": "address"
        },
        {
          "name": "content",
          "type": "string"
        },
        {
          "name": "timestamp",
          "type": "uint256"
        }
      ],
      "payable": false,
      "stateMutability": "view",
      "type": "function"
    },
    {
      "constant": true,
      "inputs": [],
      "name": "lastHashId",
      "outputs": [
        {
          "name": "",
          "type": "uint256"
        }
      ],
      "payable": false,
      "stateMutability": "view",
      "type": "function"
    },
    {
      "constant": true,
      "inputs": [],
      "name": "price",
      "outputs": [
        {
          "name": "",
          "type": "uint256"
        }
      ],
      "payable": false,
      "stateMutability": "view",
      "type": "function"
    },
    {
      "inputs": [
        {
          "name": "_price",
          "type": "uint256"
        }
      ],
      "payable": false,
      "stateMutability": "nonpayable",
      "type": "constructor"
    },
    {
      "anonymous": false,
      "inputs": [
        {
          "indexed": true,
          "name": "_previousOwner",
          "type": "address"
        },
        {
          "indexed": true,
          "name": "_newOwner",
          "type": "address"
        }
      ],
      "name": "OwnershipTransferred",
      "type": "event"
    },
    {
      "anonymous": false,
      "inputs": [
        {
          "indexed": true,
          "name": "_hashSender",
          "type": "address"
        },
        {
          "indexed": false,
          "name": "_hashId",
          "type": "uint256"
        },
        {
          "indexed": false,
          "name": "_hashContent",
          "type": "string"
        },
        {
          "indexed": false,
          "name": "timestamp",
          "type": "uint256"
        }
      ],
      "name": "NewHashStored",
      "type": "event"
    },
    {
      "anonymous": false,
      "inputs": [
        {
          "indexed": true,
          "name": "_hashSender",
          "type": "address"
        },
        {
          "indexed": false,
          "name": "amount",
          "type": "uint256"
        }
      ],
      "name": "Withdrawn",
      "type": "event"
    },
    {
      "anonymous": false,
      "inputs": [
        {
          "indexed": false,
          "name": "newPrice",
          "type": "uint256"
        }
      ],
      "name": "PriceChanged",
      "type": "event"
    },
    {
      "constant": false,
      "inputs": [
        {
          "name": "_newOwner",
          "type": "address"
        }
      ],
      "name": "transferOwnership",
      "outputs": [],
      "payable": false,
      "stateMutability": "nonpayable",
      "type": "function"
    },
    {
      "constant": false,
      "inputs": [],
      "name": "withdrawBalance",
      "outputs": [],
      "payable": false,
      "stateMutability": "nonpayable",
      "type": "function"
    },
    {
      "constant": false,
      "inputs": [
        {
          "name": "newPrice",
          "type": "uint256"
        }
      ],
      "name": "changePrice",
      "outputs": [],
      "payable": false,
      "stateMutability": "nonpayable",
      "type": "function"
    },
    {
      "constant": false,
      "inputs": [
        {
          "name": "_hashContent",
          "type": "string"
        }
      ],
      "name": "save",
      "outputs": [],
      "payable": true,
      "stateMutability": "payable",
      "type": "function"
    },
    {
      "constant": true,
      "inputs": [
        {
          "name": "_hashId",
          "type": "uint256"
        }
      ],
      "name": "find",
      "outputs": [
        {
          "name": "hashSender",
          "type": "address"
        },
        {
          "name": "hashContent",
          "type": "string"
        },
        {
          "name": "hashTimestamp",
          "type": "uint256"
        }
      ],
      "payable": false,
      "stateMutability": "view",
      "type": "function"
    }
  ],
  "bytecode": "0x6060604052341561000f57600080fd5b604051602080610bc18339810160405280805190602001909190505060008111151561003a57600080fd5b33600160006101000a81548173ffffffffffffffffffffffffffffffffffffffff021916908373ffffffffffffffffffffffffffffffffffffffff16021790555080600381905550600060028190555050610b278061009a6000396000f30060606040526004361061008e576000357c0100000000000000000000000000000000000000000000000000000000900463ffffffff16806338e48f06146100935780633e530e5b146100e5578063501895ae146101bb5780635fd8c710146102ae5780639f749827146102c3578063a035b1fe146102ec578063a2b40d1914610315578063f2fde38b14610338575b600080fd5b6100e3600480803590602001908201803590602001908080601f01602080910402602001604051908101604052809392919081815260200183838082843782019150505050505091905050610371565b005b34156100f057600080fd5b610106600480803590602001909190505061056e565b604051808473ffffffffffffffffffffffffffffffffffffffff1673ffffffffffffffffffffffffffffffffffffffff16815260200180602001838152602001828103825284818151815260200191508051906020019080838360005b8381101561017e578082015181840152602081019050610163565b50505050905090810190601f1680156101ab5780820380516001836020036101000a031916815260200191505b5094505050505060405180910390f35b34156101c657600080fd5b6101dc6004808035906020019091905050610684565b604051808473ffffffffffffffffffffffffffffffffffffffff1673ffffffffffffffffffffffffffffffffffffffff1681526020018060200183815260200182810382528481815460018160011615610100020316600290048152602001915080546001816001161561010002031660029004801561029d5780601f106102725761010080835404028352916020019161029d565b820191906000526020600020905b81548152906001019060200180831161028057829003601f168201915b505094505050505060405180910390f35b34156102b957600080fd5b6102c16106cd565b005b34156102ce57600080fd5b6102d6610831565b6040518082815260200191505060405180910390f35b34156102f757600080fd5b6102ff610837565b6040518082815260200191505060405180910390f35b341561032057600080fd5b610336600480803590602001909190505061083d565b005b341561034357600080fd5b61036f600480803573ffffffffffffffffffffffffffffffffffffffff169060200190919050506108ea565b005b6000600354341015151561038457600080fd5b60026000815460010191905081905590503360008083815260200190815260200160002060000160006101000a81548173ffffffffffffffffffffffffffffffffffffffff021916908373ffffffffffffffffffffffffffffffffffffffff160217905550816000808381526020019081526020016000206001019080519060200190610412929190610a42565b50426000808381526020019081526020016000206002018190555060008082815260200190815260200160002060000160009054906101000a900473ffffffffffffffffffffffffffffffffffffffff1673ffffffffffffffffffffffffffffffffffffffff167e0e9060aadd104e99f6317d14c9cc79d566a8dee53787abb0882ff038841b6a8260008085815260200190815260200160002060010160008086815260200190815260200160002060020154604051808481526020018060200183815260200182810382528481815460018160011615610100020316600290048152602001915080546001816001161561010002031660029004801561055a5780601f1061052f5761010080835404028352916020019161055a565b820191906000526020600020905b81548152906001019060200180831161053d57829003601f168201915b505094505050505060405180910390a25050565b6000610578610ac2565b600080600085815260200190815260200160002060000160009054906101000a900473ffffffffffffffffffffffffffffffffffffffff1660008086815260200190815260200160002060010160008087815260200190815260200160002060020154818054600181600116156101000203166002900480601f0160208091040260200160405190810160405280929190818152602001828054600181600116156101000203166002900480156106705780601f1061064557610100808354040283529160200191610670565b820191906000526020600020905b81548152906001019060200180831161065357829003601f168201915b505050505091509250925092509193909250565b60006020528060005260406000206000915090508060000160009054906101000a900473ffffffffffffffffffffffffffffffffffffffff169080600101908060020154905083565b6000600160009054906101000a900473ffffffffffffffffffffffffffffffffffffffff1673ffffffffffffffffffffffffffffffffffffffff163373ffffffffffffffffffffffffffffffffffffffff1614151561072b57600080fd5b3073ffffffffffffffffffffffffffffffffffffffff16319050600160009054906101000a900473ffffffffffffffffffffffffffffffffffffffff1673ffffffffffffffffffffffffffffffffffffffff166108fc3073ffffffffffffffffffffffffffffffffffffffff16319081150290604051600060405180830381858888f1935050505015156107be57600080fd5b600160009054906101000a900473ffffffffffffffffffffffffffffffffffffffff1673ffffffffffffffffffffffffffffffffffffffff167f7084f5476618d8e60b11ef0d7d3f06914655adb8793e28ff7f018d4c76d505d5826040518082815260200191505060405180910390a250565b60025481565b60035481565b600160009054906101000a900473ffffffffffffffffffffffffffffffffffffffff1673ffffffffffffffffffffffffffffffffffffffff163373ffffffffffffffffffffffffffffffffffffffff1614151561089957600080fd5b600081101515156108a957600080fd5b806003819055507fa6dc15bdb68da224c66db4b3838d9a2b205138e8cff6774e57d0af91e196d622816040518082815260200191505060405180910390a150565b600160009054906101000a900473ffffffffffffffffffffffffffffffffffffffff1673ffffffffffffffffffffffffffffffffffffffff163373ffffffffffffffffffffffffffffffffffffffff1614151561094657600080fd5b600073ffffffffffffffffffffffffffffffffffffffff168173ffffffffffffffffffffffffffffffffffffffff161415151561098257600080fd5b80600160006101000a81548173ffffffffffffffffffffffffffffffffffffffff021916908373ffffffffffffffffffffffffffffffffffffffff1602179055508073ffffffffffffffffffffffffffffffffffffffff16600160009054906101000a900473ffffffffffffffffffffffffffffffffffffffff1673ffffffffffffffffffffffffffffffffffffffff167f8be0079c531659141344cd1fd0a4f28419497f9722a3daafe3b4186f6b6457e060405160405180910390a350565b828054600181600116156101000203166002900490600052602060002090601f016020900481019282601f10610a8357805160ff1916838001178555610ab1565b82800160010185558215610ab1579182015b82811115610ab0578251825591602001919060010190610a95565b5b509050610abe9190610ad6565b5090565b602060405190810160405280600081525090565b610af891905b80821115610af4576000816000905550600101610adc565b5090565b905600a165627a7a72305820b25fb710db191434abb9fa5595b2673a4473e5197e4497a3ea1f7cad85b03e860029",
  "source": "pragma solidity ^0.4.17;\n\ncontract DoxHash {\n    \n\n    //events\n    event OwnershipTransferred(address indexed _previousOwner, address indexed _newOwner);\n    event NewHashStored(address indexed _hashSender, uint _hashId, string _hashContent, uint timestamp);\n    event Withdrawn(address indexed _hashSender, uint amount);\n    event PriceChanged(uint newPrice);\n\n    //structs\n\n    struct Hash {\n        address sender;\n        string content;\n        uint timestamp;\n    }\n\n    //variables\n\n    mapping(uint => Hash) public hashes;\n    address owner;\n    uint public lastHashId;\n    uint public price;\n\n    //modifiers\n\n    modifier ownerOnly(){\n        require(msg.sender == owner);\n        _;\n    }\n\n    //constructor\n\n    function DoxHash(uint _price) public{\n        require(_price > 0);\n\n        owner = msg.sender;\n        price = _price;\n        lastHashId = 0;\n    }\n\n    //functions\n\n    function transferOwnership(address _newOwner) ownerOnly public {\n        require(_newOwner != address(0));\n\n        owner = _newOwner;\n\n        //invoke event\n        OwnershipTransferred(owner, _newOwner);\n    }\n\n\n    function withdrawBalance() ownerOnly public {\n\n        var amount = this.balance;\n\n        //transfer balance\n        owner.transfer(this.balance);\n\n        //Log event\n        Withdrawn(owner, amount);\n    }\n\n\n    function changePrice(uint newPrice) ownerOnly public {\n        require(newPrice >= 0);\n\n        price = newPrice;\n\n        PriceChanged(newPrice);\n    }\n\n\n    function save(string _hashContent) payable public {\n        require(msg.value >= price);\n\n        //save/map the hash\n        uint hashId = ++lastHashId;\n        hashes[hashId].sender = msg.sender;\n        hashes[hashId].content = _hashContent;\n        hashes[hashId].timestamp = block.timestamp;\n\n        //Log event\n        NewHashStored(hashes[hashId].sender, hashId, hashes[hashId].content, hashes[hashId].timestamp);\n    }\n\n    function find(uint _hashId) view public returns (address hashSender, string hashContent, uint hashTimestamp) {\n        return (hashes[_hashId].sender, hashes[_hashId].content, hashes[_hashId].timestamp);\n    }\n}",
  "sourcePath": "/home/daniel/Desktop/Dox/contracts/DoxHash.sol",
  "compiler": {
    "name": "solc",
    "version": "0.4.19+commit.c4cbbb05.Emscripten.clang"
  },
  "schemaVersion": "2.0.0",
  "updatedAt": "2018-04-05T18:11:33.135Z"
}